{
  "_format": "hh-sol-artifact-1",
  "contractName": "NFTMarketplace",
  "sourceName": "contracts/NFTMarketplace.sol",
  "abi": [
    {
      "inputs": [],
      "stateMutability": "nonpayable",
      "type": "constructor"
    },
    {
      "anonymous": false,
      "inputs": [
        {
          "indexed": true,
          "internalType": "address",
          "name": "owner",
          "type": "address"
        },
        {
          "indexed": true,
          "internalType": "address",
          "name": "approved",
          "type": "address"
        },
        {
          "indexed": true,
          "internalType": "uint256",
          "name": "tokenId",
          "type": "uint256"
        }
      ],
      "name": "Approval",
      "type": "event"
    },
    {
      "anonymous": false,
      "inputs": [
        {
          "indexed": true,
          "internalType": "address",
          "name": "owner",
          "type": "address"
        },
        {
          "indexed": true,
          "internalType": "address",
          "name": "operator",
          "type": "address"
        },
        {
          "indexed": false,
          "internalType": "bool",
          "name": "approved",
          "type": "bool"
        }
      ],
      "name": "ApprovalForAll",
      "type": "event"
    },
    {
      "anonymous": false,
      "inputs": [
        {
          "indexed": false,
          "internalType": "uint256",
          "name": "_fromTokenId",
          "type": "uint256"
        },
        {
          "indexed": false,
          "internalType": "uint256",
          "name": "_toTokenId",
          "type": "uint256"
        }
      ],
      "name": "BatchMetadataUpdate",
      "type": "event"
    },
    {
      "anonymous": false,
      "inputs": [
        {
          "indexed": false,
          "internalType": "string",
          "name": "name",
          "type": "string"
        },
        {
          "indexed": false,
          "internalType": "string",
          "name": "message",
          "type": "string"
        },
        {
          "indexed": false,
          "internalType": "uint256",
          "name": "timestamp",
          "type": "uint256"
        },
        {
          "indexed": false,
          "internalType": "address",
          "name": "buyer",
          "type": "address"
        },
        {
          "indexed": false,
          "internalType": "uint256",
          "name": "amount",
          "type": "uint256"
        }
      ],
      "name": "ChaiBought",
      "type": "event"
    },
    {
      "anonymous": false,
      "inputs": [
        {
          "indexed": true,
          "internalType": "address",
          "name": "from",
          "type": "address"
        },
        {
          "indexed": false,
          "internalType": "string",
          "name": "name",
          "type": "string"
        },
        {
          "indexed": false,
          "internalType": "string",
          "name": "message",
          "type": "string"
        },
        {
          "indexed": false,
          "internalType": "uint256",
          "name": "timestamp",
          "type": "uint256"
        },
        {
          "indexed": false,
          "internalType": "uint256",
          "name": "amount",
          "type": "uint256"
        }
      ],
      "name": "Donation",
      "type": "event"
    },
    {
      "anonymous": false,
      "inputs": [
        {
          "indexed": false,
          "internalType": "uint256",
          "name": "newPrice",
          "type": "uint256"
        }
      ],
      "name": "ListingPriceUpdated",
      "type": "event"
    },
    {
      "anonymous": false,
      "inputs": [
        {
          "indexed": true,
          "internalType": "uint256",
          "name": "tokenId",
          "type": "uint256"
        },
        {
          "indexed": false,
          "internalType": "address",
          "name": "seller",
          "type": "address"
        },
        {
          "indexed": false,
          "internalType": "address",
          "name": "owner",
          "type": "address"
        },
        {
          "indexed": false,
          "internalType": "uint256",
          "name": "price",
          "type": "uint256"
        },
        {
          "indexed": false,
          "internalType": "bool",
          "name": "sold",
          "type": "bool"
        }
      ],
      "name": "MarketItemCreated",
      "type": "event"
    },
    {
      "anonymous": false,
      "inputs": [
        {
          "indexed": true,
          "internalType": "uint256",
          "name": "tokenId",
          "type": "uint256"
        },
        {
          "indexed": false,
          "internalType": "address",
          "name": "buyer",
          "type": "address"
        },
        {
          "indexed": false,
          "internalType": "address",
          "name": "seller",
          "type": "address"
        },
        {
          "indexed": false,
          "internalType": "uint256",
          "name": "price",
          "type": "uint256"
        }
      ],
      "name": "MarketSale",
      "type": "event"
    },
    {
      "anonymous": false,
      "inputs": [
        {
          "indexed": false,
          "internalType": "uint256",
          "name": "_tokenId",
          "type": "uint256"
        }
      ],
      "name": "MetadataUpdate",
      "type": "event"
    },
    {
      "anonymous": false,
      "inputs": [
        {
          "indexed": true,
          "internalType": "uint256",
          "name": "tokenId",
          "type": "uint256"
        },
        {
          "indexed": false,
          "internalType": "address",
          "name": "seller",
          "type": "address"
        },
        {
          "indexed": false,
          "internalType": "address",
          "name": "owner",
          "type": "address"
        },
        {
          "indexed": false,
          "internalType": "uint256",
          "name": "price",
          "type": "uint256"
        }
      ],
      "name": "TokenResold",
      "type": "event"
    },
    {
      "anonymous": false,
      "inputs": [
        {
          "indexed": true,
          "internalType": "address",
          "name": "from",
          "type": "address"
        },
        {
          "indexed": true,
          "internalType": "address",
          "name": "to",
          "type": "address"
        },
        {
          "indexed": true,
          "internalType": "uint256",
          "name": "tokenId",
          "type": "uint256"
        }
      ],
      "name": "Transfer",
      "type": "event"
    },
    {
      "inputs": [],
      "name": "Rowner",
      "outputs": [
        {
          "internalType": "address payable",
          "name": "",
          "type": "address"
        }
      ],
      "stateMutability": "view",
      "type": "function"
    },
    {
      "inputs": [
        {
          "internalType": "address",
          "name": "to",
          "type": "address"
        },
        {
          "internalType": "uint256",
          "name": "tokenId",
          "type": "uint256"
        }
      ],
      "name": "approve",
      "outputs": [],
      "stateMutability": "nonpayable",
      "type": "function"
    },
    {
      "inputs": [
        {
          "internalType": "address",
          "name": "owner",
          "type": "address"
        }
      ],
      "name": "balanceOf",
      "outputs": [
        {
          "internalType": "uint256",
          "name": "",
          "type": "uint256"
        }
      ],
      "stateMutability": "view",
      "type": "function"
    },
    {
      "inputs": [
        {
          "internalType": "string",
          "name": "name",
          "type": "string"
        },
        {
          "internalType": "string",
          "name": "message",
          "type": "string"
        },
        {
          "internalType": "string",
          "name": "cid",
          "type": "string"
        }
      ],
      "name": "buyChai",
      "outputs": [],
      "stateMutability": "payable",
      "type": "function"
    },
    {
      "inputs": [
        {
          "internalType": "uint256",
          "name": "tokenId",
          "type": "uint256"
        }
      ],
      "name": "createMarketSale",
      "outputs": [],
      "stateMutability": "payable",
      "type": "function"
    },
    {
      "inputs": [
        {
          "internalType": "string",
          "name": "tokenURI",
          "type": "string"
        },
        {
          "internalType": "uint256",
          "name": "price",
          "type": "uint256"
        }
      ],
      "name": "createToken",
      "outputs": [
        {
          "internalType": "uint256",
          "name": "",
          "type": "uint256"
        }
      ],
      "stateMutability": "payable",
      "type": "function"
    },
    {
      "inputs": [],
      "name": "fetchItemsListed",
      "outputs": [
        {
          "components": [
            {
              "internalType": "uint256",
              "name": "tokenId",
              "type": "uint256"
            },
            {
              "internalType": "address payable",
              "name": "seller",
              "type": "address"
            },
            {
              "internalType": "address payable",
              "name": "owner",
              "type": "address"
            },
            {
              "internalType": "uint256",
              "name": "price",
              "type": "uint256"
            },
            {
              "internalType": "bool",
              "name": "sold",
              "type": "bool"
            }
          ],
          "internalType": "struct NFTMarketplace.MarketItem[]",
          "name": "",
          "type": "tuple[]"
        }
      ],
      "stateMutability": "view",
      "type": "function"
    },
    {
      "inputs": [],
      "name": "fetchMarketItems",
      "outputs": [
        {
          "components": [
            {
              "internalType": "uint256",
              "name": "tokenId",
              "type": "uint256"
            },
            {
              "internalType": "address payable",
              "name": "seller",
              "type": "address"
            },
            {
              "internalType": "address payable",
              "name": "owner",
              "type": "address"
            },
            {
              "internalType": "uint256",
              "name": "price",
              "type": "uint256"
            },
            {
              "internalType": "bool",
              "name": "sold",
              "type": "bool"
            }
          ],
          "internalType": "struct NFTMarketplace.MarketItem[]",
          "name": "",
          "type": "tuple[]"
        }
      ],
      "stateMutability": "view",
      "type": "function"
    },
    {
      "inputs": [],
      "name": "fetchMyNFTs",
      "outputs": [
        {
          "components": [
            {
              "internalType": "uint256",
              "name": "tokenId",
              "type": "uint256"
            },
            {
              "internalType": "address payable",
              "name": "seller",
              "type": "address"
            },
            {
              "internalType": "address payable",
              "name": "owner",
              "type": "address"
            },
            {
              "internalType": "uint256",
              "name": "price",
              "type": "uint256"
            },
            {
              "internalType": "bool",
              "name": "sold",
              "type": "bool"
            }
          ],
          "internalType": "struct NFTMarketplace.MarketItem[]",
          "name": "",
          "type": "tuple[]"
        }
      ],
      "stateMutability": "view",
      "type": "function"
    },
    {
      "inputs": [
        {
          "internalType": "uint256",
          "name": "tokenId",
          "type": "uint256"
        }
      ],
      "name": "getApproved",
      "outputs": [
        {
          "internalType": "address",
          "name": "",
          "type": "address"
        }
      ],
      "stateMutability": "view",
      "type": "function"
    },
    {
      "inputs": [],
      "name": "getBalance",
      "outputs": [
        {
          "internalType": "uint256",
          "name": "",
          "type": "uint256"
        }
      ],
      "stateMutability": "view",
      "type": "function"
    },
    {
      "inputs": [],
      "name": "getListingPrice",
      "outputs": [
        {
          "internalType": "uint256",
          "name": "",
          "type": "uint256"
        }
      ],
      "stateMutability": "view",
      "type": "function"
    },
    {
      "inputs": [],
      "name": "getMemos",
      "outputs": [
        {
          "components": [
            {
              "internalType": "string",
              "name": "name",
              "type": "string"
            },
            {
              "internalType": "string",
              "name": "message",
              "type": "string"
            },
            {
              "internalType": "string",
              "name": "cid",
              "type": "string"
            },
            {
              "internalType": "uint256",
              "name": "timestamp",
              "type": "uint256"
            },
            {
              "internalType": "address",
              "name": "from",
              "type": "address"
            }
          ],
          "internalType": "struct NFTMarketplace.Memo[]",
          "name": "",
          "type": "tuple[]"
        }
      ],
      "stateMutability": "view",
      "type": "function"
    },
    {
      "inputs": [
        {
          "internalType": "address",
          "name": "owner",
          "type": "address"
        },
        {
          "internalType": "address",
          "name": "operator",
          "type": "address"
        }
      ],
      "name": "isApprovedForAll",
      "outputs": [
        {
          "internalType": "bool",
          "name": "",
          "type": "bool"
        }
      ],
      "stateMutability": "view",
      "type": "function"
    },
    {
      "inputs": [],
      "name": "name",
      "outputs": [
        {
          "internalType": "string",
          "name": "",
          "type": "string"
        }
      ],
      "stateMutability": "view",
      "type": "function"
    },
    {
      "inputs": [
        {
          "internalType": "uint256",
          "name": "tokenId",
          "type": "uint256"
        }
      ],
      "name": "ownerOf",
      "outputs": [
        {
          "internalType": "address",
          "name": "",
          "type": "address"
        }
      ],
      "stateMutability": "view",
      "type": "function"
    },
    {
      "inputs": [
        {
          "internalType": "uint256",
          "name": "tokenId",
          "type": "uint256"
        },
        {
          "internalType": "uint256",
          "name": "price",
          "type": "uint256"
        }
      ],
      "name": "resellToken",
      "outputs": [],
      "stateMutability": "payable",
      "type": "function"
    },
    {
      "inputs": [
        {
          "internalType": "address",
          "name": "from",
          "type": "address"
        },
        {
          "internalType": "address",
          "name": "to",
          "type": "address"
        },
        {
          "internalType": "uint256",
          "name": "tokenId",
          "type": "uint256"
        }
      ],
      "name": "safeTransferFrom",
      "outputs": [],
      "stateMutability": "nonpayable",
      "type": "function"
    },
    {
      "inputs": [
        {
          "internalType": "address",
          "name": "from",
          "type": "address"
        },
        {
          "internalType": "address",
          "name": "to",
          "type": "address"
        },
        {
          "internalType": "uint256",
          "name": "tokenId",
          "type": "uint256"
        },
        {
          "internalType": "bytes",
          "name": "data",
          "type": "bytes"
        }
      ],
      "name": "safeTransferFrom",
      "outputs": [],
      "stateMutability": "nonpayable",
      "type": "function"
    },
    {
      "inputs": [
        {
          "internalType": "address",
          "name": "operator",
          "type": "address"
        },
        {
          "internalType": "bool",
          "name": "approved",
          "type": "bool"
        }
      ],
      "name": "setApprovalForAll",
      "outputs": [],
      "stateMutability": "nonpayable",
      "type": "function"
    },
    {
      "inputs": [
        {
          "internalType": "bytes4",
          "name": "interfaceId",
          "type": "bytes4"
        }
      ],
      "name": "supportsInterface",
      "outputs": [
        {
          "internalType": "bool",
          "name": "",
          "type": "bool"
        }
      ],
      "stateMutability": "view",
      "type": "function"
    },
    {
      "inputs": [],
      "name": "symbol",
      "outputs": [
        {
          "internalType": "string",
          "name": "",
          "type": "string"
        }
      ],
      "stateMutability": "view",
      "type": "function"
    },
    {
      "inputs": [
        {
          "internalType": "uint256",
          "name": "tokenId",
          "type": "uint256"
        }
      ],
      "name": "tokenURI",
      "outputs": [
        {
          "internalType": "string",
          "name": "",
          "type": "string"
        }
      ],
      "stateMutability": "view",
      "type": "function"
    },
    {
      "inputs": [
        {
          "internalType": "address",
          "name": "from",
          "type": "address"
        },
        {
          "internalType": "address",
          "name": "to",
          "type": "address"
        },
        {
          "internalType": "uint256",
          "name": "tokenId",
          "type": "uint256"
        }
      ],
      "name": "transferFrom",
      "outputs": [],
      "stateMutability": "nonpayable",
      "type": "function"
    },
    {
      "inputs": [
        {
          "internalType": "uint256",
          "name": "_listingPrice",
          "type": "uint256"
        }
      ],
      "name": "updateListingPrice",
      "outputs": [],
      "stateMutability": "payable",
      "type": "function"
    }
  ],
  "bytecode": "0x60806040526658d15e17628000600a553480156200001c57600080fd5b506040518060400160405280601081526020016f4d657461766572736520546f6b656e7360801b815250604051806040016040528060048152602001631351551560e21b815250816000908162000074919062000153565b50600162000083828262000153565b5050600e8054336001600160a01b03199182168117909255600b80549091169091179055506200021f565b634e487b7160e01b600052604160045260246000fd5b600181811c90821680620000d957607f821691505b602082108103620000fa57634e487b7160e01b600052602260045260246000fd5b50919050565b601f8211156200014e57600081815260208120601f850160051c81016020861015620001295750805b601f850160051c820191505b818110156200014a5782815560010162000135565b5050505b505050565b81516001600160401b038111156200016f576200016f620000ae565b6200018781620001808454620000c4565b8462000100565b602080601f831160018114620001bf5760008415620001a65750858301515b600019600386901b1c1916600185901b1785556200014a565b600085815260208120601f198616915b82811015620001f057888601518255948401946001909101908401620001cf565b50858210156200020f5787850151600019600388901b60f8161c191681555b5050505050600190811b01905550565b61295f806200022f6000396000f3fe6080604052600436106101665760003560e01c806370a08231116100d1578063ae677aa31161008a578063c87b56dd11610064578063c87b56dd146103f6578063e219fc7514610416578063e2ede73d14610429578063e985e9c51461043c57600080fd5b8063ae677aa3146103b0578063b88d4fde146103c3578063be9af536146103e357600080fd5b806370a082311461030657806372b3b62014610326578063865c51721461033957806395d89b411461035b578063a0d1804514610370578063a22cb4651461039057600080fd5b806312e855851161012357806312e8558514610267578063202e37401461027c57806323b872dd1461029157806342842e0e146102b157806345f8fa80146102d15780636352211e146102e657600080fd5b806301ffc9a71461016b57806306fdde03146101a0578063081812fc146101c2578063095ea7b3146101fa5780630f08efe01461021c57806312065fe01461023e575b600080fd5b34801561017757600080fd5b5061018b6101863660046120cf565b610485565b60405190151581526020015b60405180910390f35b3480156101ac57600080fd5b506101b56104b0565b604051610197919061213c565b3480156101ce57600080fd5b506101e26101dd36600461214f565b610542565b6040516001600160a01b039091168152602001610197565b34801561020657600080fd5b5061021a610215366004612184565b610569565b005b34801561022857600080fd5b50610231610683565b60405161019791906121ae565b34801561024a57600080fd5b50600e546001600160a01b0316315b604051908152602001610197565b34801561027357600080fd5b50600a54610259565b34801561028857600080fd5b5061023161081a565b34801561029d57600080fd5b5061021a6102ac36600461222a565b6109ee565b3480156102bd57600080fd5b5061021a6102cc36600461222a565b610a1f565b3480156102dd57600080fd5b50610231610a3a565b3480156102f257600080fd5b506101e261030136600461214f565b610c0e565b34801561031257600080fd5b50610259610321366004612266565b610c6e565b61025961033436600461232d565b610cf4565b34801561034557600080fd5b5061034e610d36565b6040516101979190612372565b34801561036757600080fd5b506101b5610f6e565b34801561037c57600080fd5b50600e546101e2906001600160a01b031681565b34801561039c57600080fd5b5061021a6103ab366004612430565b610f7d565b61021a6103be36600461214f565b610f8c565b3480156103cf57600080fd5b5061021a6103de36600461246c565b61103a565b61021a6103f136600461214f565b611072565b34801561040257600080fd5b506101b561041136600461214f565b611228565b61021a6104243660046124e8565b611338565b61021a61043736600461250a565b611477565b34801561044857600080fd5b5061018b610457366004612592565b6001600160a01b03918216600090815260056020908152604080832093909416825291909152205460ff1690565b60006001600160e01b03198216632483248360e11b14806104aa57506104aa826115db565b92915050565b6060600080546104bf906125c5565b80601f01602080910402602001604051908101604052809291908181526020018280546104eb906125c5565b80156105385780601f1061050d57610100808354040283529160200191610538565b820191906000526020600020905b81548152906001019060200180831161051b57829003601f168201915b5050505050905090565b600061054d8261162b565b506000908152600460205260409020546001600160a01b031690565b600061057482610c0e565b9050806001600160a01b0316836001600160a01b0316036105e65760405162461bcd60e51b815260206004820152602160248201527f4552433732313a20617070726f76616c20746f2063757272656e74206f776e656044820152603960f91b60648201526084015b60405180910390fd5b336001600160a01b038216148061060257506106028133610457565b6106745760405162461bcd60e51b815260206004820152603d60248201527f4552433732313a20617070726f76652063616c6c6572206973206e6f7420746f60448201527f6b656e206f776e6572206f7220617070726f76656420666f7220616c6c00000060648201526084016105dd565b61067e838361168d565b505050565b6060600061069060075490565b9050600061069d60085490565b6007546106aa9190612615565b90506000808267ffffffffffffffff8111156106c8576106c8612281565b60405190808252806020026020018201604052801561072157816020015b6040805160a0810182526000808252602080830182905292820181905260608201819052608082015282526000199092019101816106e65790505b50905060005b848110156108115730600c600061073f846001612628565b81526020810191909152604001600020600201546001600160a01b0316036107ff57600061076e826001612628565b6000818152600c6020908152604091829020825160a0810184528154815260018201546001600160a01b039081169382019390935260028201549092169282019290925260038201546060820152600482015460ff1615156080820152855192935090918590879081106107e4576107e461263b565b60209081029190910101526107fa600186612628565b945050505b8061080981612651565b915050610727565b50949350505050565b6060600061082760075490565b905060008060005b838110156108895733600c6000610847846001612628565b81526020810191909152604001600020600201546001600160a01b03160361087757610874600184612628565b92505b8061088181612651565b91505061082f565b5060008267ffffffffffffffff8111156108a5576108a5612281565b6040519080825280602002602001820160405280156108fe57816020015b6040805160a0810182526000808252602080830182905292820181905260608201819052608082015282526000199092019101816108c35790505b50905060005b848110156108115733600c600061091c846001612628565b81526020810191909152604001600020600201546001600160a01b0316036109dc57600061094b826001612628565b6000818152600c6020908152604091829020825160a0810184528154815260018201546001600160a01b039081169382019390935260028201549092169282019290925260038201546060820152600482015460ff1615156080820152855192935090918590879081106109c1576109c161263b565b60209081029190910101526109d7600186612628565b945050505b806109e681612651565b915050610904565b6109f833826116fb565b610a145760405162461bcd60e51b81526004016105dd9061266a565b61067e838383611779565b61067e8383836040518060200160405280600081525061103a565b60606000610a4760075490565b905060008060005b83811015610aa95733600c6000610a67846001612628565b81526020810191909152604001600020600101546001600160a01b031603610a9757610a94600184612628565b92505b80610aa181612651565b915050610a4f565b5060008267ffffffffffffffff811115610ac557610ac5612281565b604051908082528060200260200182016040528015610b1e57816020015b6040805160a081018252600080825260208083018290529282018190526060820181905260808201528252600019909201910181610ae35790505b50905060005b848110156108115733600c6000610b3c846001612628565b81526020810191909152604001600020600101546001600160a01b031603610bfc576000610b6b826001612628565b6000818152600c6020908152604091829020825160a0810184528154815260018201546001600160a01b039081169382019390935260028201549092169282019290925260038201546060820152600482015460ff161515608082015285519293509091859087908110610be157610be161263b565b6020908102919091010152610bf7600186612628565b945050505b80610c0681612651565b915050610b24565b6000818152600260205260408120546001600160a01b0316806104aa5760405162461bcd60e51b8152602060048201526018602482015277115490cdcc8c4e881a5b9d985b1a59081d1bdad95b88125160421b60448201526064016105dd565b60006001600160a01b038216610cd85760405162461bcd60e51b815260206004820152602960248201527f4552433732313a2061646472657373207a65726f206973206e6f7420612076616044820152683634b21037bbb732b960b91b60648201526084016105dd565b506001600160a01b031660009081526003602052604090205490565b6000610d04600780546001019055565b6000610d0f60075490565b9050610d1b33826118dd565b610d258185611a68565b610d2f8184611b33565b9392505050565b6060600d805480602002602001604051908101604052809291908181526020016000905b82821015610f6557838290600052602060002090600502016040518060a0016040529081600082018054610d8d906125c5565b80601f0160208091040260200160405190810160405280929190818152602001828054610db9906125c5565b8015610e065780601f10610ddb57610100808354040283529160200191610e06565b820191906000526020600020905b815481529060010190602001808311610de957829003601f168201915b50505050508152602001600182018054610e1f906125c5565b80601f0160208091040260200160405190810160405280929190818152602001828054610e4b906125c5565b8015610e985780601f10610e6d57610100808354040283529160200191610e98565b820191906000526020600020905b815481529060010190602001808311610e7b57829003601f168201915b50505050508152602001600282018054610eb1906125c5565b80601f0160208091040260200160405190810160405280929190818152602001828054610edd906125c5565b8015610f2a5780601f10610eff57610100808354040283529160200191610f2a565b820191906000526020600020905b815481529060010190602001808311610f0d57829003601f168201915b505050918352505060038201546020808301919091526004909201546001600160a01b03166040909101529082526001929092019101610d5a565b50505050905090565b6060600180546104bf906125c5565b610f88338383611c82565b5050565b600b546001600160a01b03163314610fff5760405162461bcd60e51b815260206004820152603060248201527f4f6e6c79206d61726b6574706c616365206f776e65722063616e20757064617460448201526f32903634b9ba34b73390383934b1b29760811b60648201526084016105dd565b600a8190556040518181527f661c8d2e494b21e778d6b19ffb42ca00ee63062be7f9eb28af0850e01a9cf2149060200160405180910390a150565b61104433836116fb565b6110605760405162461bcd60e51b81526004016105dd9061266a565b61106c84848484611d50565b50505050565b6000818152600c6020526040902060038101546001909101546001600160a01b031634821461110b576040805162461bcd60e51b81526020600482015260248101919091527f506c65617365207375626d6974207468652061736b696e67207072696365206960448201527f6e206f7264657220746f20636f6d706c6574652074686520707572636861736560648201526084016105dd565b6000838152600c602052604090206002810180546001600160a01b0319908116331790915560048201805460ff191660019081179091559091018054909116905561115a600880546001019055565b611165303385611779565b600b54600a546040516001600160a01b039092169181156108fc0291906000818181858888f193505050501580156111a1573d6000803e3d6000fd5b506040516001600160a01b038216903480156108fc02916000818181858888f193505050501580156111d7573d6000803e3d6000fd5b50604080513381526001600160a01b038316602082015290810183905283907f92702ca16506c19534081722898e3d74348202feb9cec071d74fc908c67dd03e9060600160405180910390a2505050565b60606112338261162b565b6000828152600660205260408120805461124c906125c5565b80601f0160208091040260200160405190810160405280929190818152602001828054611278906125c5565b80156112c55780601f1061129a576101008083540402835291602001916112c5565b820191906000526020600020905b8154815290600101906020018083116112a857829003601f168201915b5050505050905060006112e360408051602081019091526000815290565b905080516000036112f5575092915050565b81511561132757808260405160200161130f9291906126b7565b60405160208183030381529060405292505050919050565b61133084611d83565b949350505050565b6000828152600c60205260409020600201546001600160a01b031633146113b45760405162461bcd60e51b815260206004820152602a60248201527f4f6e6c79206974656d206f776e65722063616e20706572666f726d20746869736044820152691037b832b930ba34b7b760b11b60648201526084016105dd565b600a5434146113d55760405162461bcd60e51b81526004016105dd906126e6565b6000828152600c6020526040902060048101805460ff19169055600381018290556001810180546001600160a01b0319908116331790915560029091018054909116301790556114256008611df6565b611430333084611779565b6040805133815230602082015290810182905282907fc6b0d13d6c1af02bfe5761531c93b25f6078fbae63c013f2afb85a0a42ffc1f3906060015b60405180910390a25050565b600034116114d35760405162461bcd60e51b815260206004820152602360248201527f506c656173652070617920736f6d657468696e6720677265617465722074686160448201526206e20360ec1b60648201526084016105dd565b600e546040516001600160a01b03909116903480156108fc02916000818181858888f1935050505015801561150c573d6000803e3d6000fd5b506040805160a08101825284815260208101849052908101829052426060820152336080820152600d8054600181018255600091909152815160059091027fd7b6990105719101dabeb77144f2a3385c8033acd3af97e9423a695e81ad1eb5019081906115799082612778565b506020820151600182019061158e9082612778565b50604082015160028201906115a39082612778565b5060608201516003820155608090910151600490910180546001600160a01b0319166001600160a01b03909216919091179055505050565b60006001600160e01b031982166380ac58cd60e01b148061160c57506001600160e01b03198216635b5e139f60e01b145b806104aa57506301ffc9a760e01b6001600160e01b03198316146104aa565b6000818152600260205260409020546001600160a01b031661168a5760405162461bcd60e51b8152602060048201526018602482015277115490cdcc8c4e881a5b9d985b1a59081d1bdad95b88125160421b60448201526064016105dd565b50565b600081815260046020526040902080546001600160a01b0319166001600160a01b03841690811790915581906116c282610c0e565b6001600160a01b03167f8c5be1e5ebec7d5bd14f71427d1e84f3dd0314c0f7b2291e5b200ac8c7c3b92560405160405180910390a45050565b60008061170783610c0e565b9050806001600160a01b0316846001600160a01b0316148061174e57506001600160a01b0380821660009081526005602090815260408083209388168352929052205460ff165b806113305750836001600160a01b031661176784610542565b6001600160a01b031614949350505050565b826001600160a01b031661178c82610c0e565b6001600160a01b0316146117b25760405162461bcd60e51b81526004016105dd90612838565b6001600160a01b0382166118145760405162461bcd60e51b8152602060048201526024808201527f4552433732313a207472616e7366657220746f20746865207a65726f206164646044820152637265737360e01b60648201526084016105dd565b826001600160a01b031661182782610c0e565b6001600160a01b03161461184d5760405162461bcd60e51b81526004016105dd90612838565b600081815260046020908152604080832080546001600160a01b03199081169091556001600160a01b0387811680865260038552838620805460001901905590871680865283862080546001019055868652600290945282852080549092168417909155905184937fddf252ad1be2c89b69c2b068fc378daa952ba7f163c4a11628f55a4df523b3ef91a4505050565b6001600160a01b0382166119335760405162461bcd60e51b815260206004820181905260248201527f4552433732313a206d696e7420746f20746865207a65726f206164647265737360448201526064016105dd565b6000818152600260205260409020546001600160a01b0316156119985760405162461bcd60e51b815260206004820152601c60248201527f4552433732313a20746f6b656e20616c7265616479206d696e7465640000000060448201526064016105dd565b6000818152600260205260409020546001600160a01b0316156119fd5760405162461bcd60e51b815260206004820152601c60248201527f4552433732313a20746f6b656e20616c7265616479206d696e7465640000000060448201526064016105dd565b6001600160a01b038216600081815260036020908152604080832080546001019055848352600290915280822080546001600160a01b0319168417905551839291907fddf252ad1be2c89b69c2b068fc378daa952ba7f163c4a11628f55a4df523b3ef908290a45050565b6000828152600260205260409020546001600160a01b0316611ae35760405162461bcd60e51b815260206004820152602e60248201527f45524337323155524953746f726167653a2055524920736574206f66206e6f6e60448201526d32bc34b9ba32b73a103a37b5b2b760911b60648201526084016105dd565b6000828152600660205260409020611afb8282612778565b506040518281527ff8e1a15aba9398e019f0b49df1a4fde98ee17ae345cb5f6b5e2c27f5033e8ce79060200160405180910390a15050565b60008111611b835760405162461bcd60e51b815260206004820152601c60248201527f5072696365206d757374206265206174206c656173742031207765690000000060448201526064016105dd565b600a543414611ba45760405162461bcd60e51b81526004016105dd906126e6565b6040805160a08101825283815233602080830182815230848601818152606086018881526000608088018181528b8252600c909652979097209551865591516001860180546001600160a01b03199081166001600160a01b0393841617909155925160028701805490941691161790915593516003840155516004909201805460ff191692151592909217909155611c3c9184611779565b604080513381523060208201529081018290526000606082015282907fb640004f1d14576d0c209e240cad0410e0d8c0c33a09375861fbadae2588a98d9060800161146b565b816001600160a01b0316836001600160a01b031603611ce35760405162461bcd60e51b815260206004820152601960248201527f4552433732313a20617070726f766520746f2063616c6c65720000000000000060448201526064016105dd565b6001600160a01b03838116600081815260056020908152604080832094871680845294825291829020805460ff191686151590811790915591519182527f17307eab39ab6107e8899845ad3d59bd9653f200f220920489ca2b5937696c31910160405180910390a3505050565b611d5b848484611779565b611d6784848484611e4d565b61106c5760405162461bcd60e51b81526004016105dd9061287d565b6060611d8e8261162b565b6000611da560408051602081019091526000815290565b90506000815111611dc55760405180602001604052806000815250610d2f565b80611dcf84611f4e565b604051602001611de09291906126b7565b6040516020818303038152906040529392505050565b805480611e455760405162461bcd60e51b815260206004820152601b60248201527f436f756e7465723a2064656372656d656e74206f766572666c6f77000000000060448201526064016105dd565b600019019055565b60006001600160a01b0384163b15611f4357604051630a85bd0160e11b81526001600160a01b0385169063150b7a0290611e919033908990889088906004016128cf565b6020604051808303816000875af1925050508015611ecc575060408051601f3d908101601f19168201909252611ec99181019061290c565b60015b611f29573d808015611efa576040519150601f19603f3d011682016040523d82523d6000602084013e611eff565b606091505b508051600003611f215760405162461bcd60e51b81526004016105dd9061287d565b805181602001fd5b6001600160e01b031916630a85bd0160e11b149050611330565b506001949350505050565b60606000611f5b83611fe1565b600101905060008167ffffffffffffffff811115611f7b57611f7b612281565b6040519080825280601f01601f191660200182016040528015611fa5576020820181803683370190505b5090508181016020015b600019016f181899199a1a9b1b9c1cb0b131b232b360811b600a86061a8153600a8504945084611faf57509392505050565b60008072184f03e93ff9f4daa797ed6e38ed64bf6a1f0160401b83106120205772184f03e93ff9f4daa797ed6e38ed64bf6a1f0160401b830492506040015b6d04ee2d6d415b85acef8100000000831061204c576d04ee2d6d415b85acef8100000000830492506020015b662386f26fc10000831061206a57662386f26fc10000830492506010015b6305f5e1008310612082576305f5e100830492506008015b612710831061209657612710830492506004015b606483106120a8576064830492506002015b600a83106104aa5760010192915050565b6001600160e01b03198116811461168a57600080fd5b6000602082840312156120e157600080fd5b8135610d2f816120b9565b60005b838110156121075781810151838201526020016120ef565b50506000910152565b600081518084526121288160208601602086016120ec565b601f01601f19169290920160200192915050565b602081526000610d2f6020830184612110565b60006020828403121561216157600080fd5b5035919050565b80356001600160a01b038116811461217f57600080fd5b919050565b6000806040838503121561219757600080fd5b6121a083612168565b946020939093013593505050565b602080825282518282018190526000919060409081850190868401855b8281101561221d57815180518552868101516001600160a01b03908116888701528682015116868601526060808201519086015260809081015115159085015260a090930192908501906001016121cb565b5091979650505050505050565b60008060006060848603121561223f57600080fd5b61224884612168565b925061225660208501612168565b9150604084013590509250925092565b60006020828403121561227857600080fd5b610d2f82612168565b634e487b7160e01b600052604160045260246000fd5b600067ffffffffffffffff808411156122b2576122b2612281565b604051601f8501601f19908116603f011681019082821181831017156122da576122da612281565b816040528093508581528686860111156122f357600080fd5b858560208301376000602087830101525050509392505050565b600082601f83011261231e57600080fd5b610d2f83833560208501612297565b6000806040838503121561234057600080fd5b823567ffffffffffffffff81111561235757600080fd5b6123638582860161230d565b95602094909401359450505050565b60006020808301818452808551808352604092508286019150828160051b87010184880160005b8381101561242257603f19898403018552815160a081518186526123bf82870182612110565b915050888201518582038a8701526123d78282612110565b91505087820151858203898701526123ef8282612110565b606084810151908801526080938401516001600160a01b0316939096019290925250509386019390860190600101612399565b509098975050505050505050565b6000806040838503121561244357600080fd5b61244c83612168565b91506020830135801515811461246157600080fd5b809150509250929050565b6000806000806080858703121561248257600080fd5b61248b85612168565b935061249960208601612168565b925060408501359150606085013567ffffffffffffffff8111156124bc57600080fd5b8501601f810187136124cd57600080fd5b6124dc87823560208401612297565b91505092959194509250565b600080604083850312156124fb57600080fd5b50508035926020909101359150565b60008060006060848603121561251f57600080fd5b833567ffffffffffffffff8082111561253757600080fd5b6125438783880161230d565b9450602086013591508082111561255957600080fd5b6125658783880161230d565b9350604086013591508082111561257b57600080fd5b506125888682870161230d565b9150509250925092565b600080604083850312156125a557600080fd5b6125ae83612168565b91506125bc60208401612168565b90509250929050565b600181811c908216806125d957607f821691505b6020821081036125f957634e487b7160e01b600052602260045260246000fd5b50919050565b634e487b7160e01b600052601160045260246000fd5b818103818111156104aa576104aa6125ff565b808201808211156104aa576104aa6125ff565b634e487b7160e01b600052603260045260246000fd5b600060018201612663576126636125ff565b5060010190565b6020808252602d908201527f4552433732313a2063616c6c6572206973206e6f7420746f6b656e206f776e6560408201526c1c881bdc88185c1c1c9bdd9959609a1b606082015260800190565b600083516126c98184602088016120ec565b8351908301906126dd8183602088016120ec565b01949350505050565b60208082526024908201527f5072696365206d75737420626520657175616c20746f206c697374696e6720706040820152637269636560e01b606082015260800190565b601f82111561067e57600081815260208120601f850160051c810160208610156127515750805b601f850160051c820191505b818110156127705782815560010161275d565b505050505050565b815167ffffffffffffffff81111561279257612792612281565b6127a6816127a084546125c5565b8461272a565b602080601f8311600181146127db57600084156127c35750858301515b600019600386901b1c1916600185901b178555612770565b600085815260208120601f198616915b8281101561280a578886015182559484019460019091019084016127eb565b50858210156128285787850151600019600388901b60f8161c191681555b5050505050600190811b01905550565b60208082526025908201527f4552433732313a207472616e736665722066726f6d20696e636f72726563742060408201526437bbb732b960d91b606082015260800190565b60208082526032908201527f4552433732313a207472616e7366657220746f206e6f6e20455243373231526560408201527131b2b4bb32b91034b6b83632b6b2b73a32b960711b606082015260800190565b6001600160a01b038581168252841660208201526040810183905260806060820181905260009061290290830184612110565b9695505050505050565b60006020828403121561291e57600080fd5b8151610d2f816120b956fea2646970667358221220b46c254276027d940e1bf026d83071ed9dbc8ac893d19612a70f92dda5a66be664736f6c63430008110033",
  "linkReferences": {},
  "deployedLinkReferences": {}
}